{
  "contractName": "Voting",
  "abi": [
    {
      "inputs": [],
      "stateMutability": "nonpayable",
      "type": "constructor"
    },
    {
      "anonymous": false,
      "inputs": [
        {
          "indexed": false,
          "internalType": "string",
          "name": "msg",
          "type": "string"
        }
      ],
      "name": "success",
      "type": "event"
    },
    {
      "inputs": [],
      "name": "admin",
      "outputs": [
        {
          "internalType": "address",
          "name": "",
          "type": "address"
        }
      ],
      "stateMutability": "view",
      "type": "function",
      "constant": true
    },
    {
      "inputs": [],
      "name": "electionCount",
      "outputs": [
        {
          "internalType": "uint256",
          "name": "",
          "type": "uint256"
        }
      ],
      "stateMutability": "view",
      "type": "function",
      "constant": true
    },
    {
      "inputs": [
        {
          "internalType": "uint256",
          "name": "",
          "type": "uint256"
        }
      ],
      "name": "elections",
      "outputs": [
        {
          "internalType": "string",
          "name": "eventName",
          "type": "string"
        },
        {
          "internalType": "bool",
          "name": "voteInProgress",
          "type": "bool"
        },
        {
          "internalType": "uint256",
          "name": "voteCount",
          "type": "uint256"
        },
        {
          "internalType": "address",
          "name": "winnerAddress",
          "type": "address"
        },
        {
          "internalType": "bool",
          "name": "exists",
          "type": "bool"
        }
      ],
      "stateMutability": "view",
      "type": "function",
      "constant": true
    },
    {
      "inputs": [
        {
          "internalType": "string",
          "name": "_eventName",
          "type": "string"
        }
      ],
      "name": "createElection",
      "outputs": [],
      "stateMutability": "nonpayable",
      "type": "function"
    },
    {
      "inputs": [],
      "name": "getElections",
      "outputs": [
        {
          "components": [
            {
              "internalType": "string",
              "name": "eventName",
              "type": "string"
            },
            {
              "internalType": "bool",
              "name": "voteInProgress",
              "type": "bool"
            },
            {
              "internalType": "uint256",
              "name": "voteCount",
              "type": "uint256"
            },
            {
              "internalType": "address",
              "name": "winnerAddress",
              "type": "address"
            },
            {
              "internalType": "bool",
              "name": "exists",
              "type": "bool"
            }
          ],
          "internalType": "struct Voting.ElectionSummary[]",
          "name": "",
          "type": "tuple[]"
        }
      ],
      "stateMutability": "view",
      "type": "function",
      "constant": true
    },
    {
      "inputs": [],
      "name": "getElectionCount",
      "outputs": [
        {
          "internalType": "uint256",
          "name": "",
          "type": "uint256"
        }
      ],
      "stateMutability": "view",
      "type": "function",
      "constant": true
    },
    {
      "inputs": [
        {
          "internalType": "uint256",
          "name": "_electionId",
          "type": "uint256"
        },
        {
          "internalType": "string",
          "name": "_name",
          "type": "string"
        },
        {
          "internalType": "uint256",
          "name": "_age",
          "type": "uint256"
        },
        {
          "internalType": "address",
          "name": "_candidateAddress",
          "type": "address"
        }
      ],
      "name": "registerCandidates",
      "outputs": [],
      "stateMutability": "nonpayable",
      "type": "function"
    },
    {
      "inputs": [
        {
          "internalType": "uint256",
          "name": "_electionId",
          "type": "uint256"
        },
        {
          "internalType": "address",
          "name": "_voterAddress",
          "type": "address"
        }
      ],
      "name": "verifyVoter",
      "outputs": [],
      "stateMutability": "nonpayable",
      "type": "function"
    },
    {
      "inputs": [
        {
          "internalType": "uint256",
          "name": "_electionId",
          "type": "uint256"
        },
        {
          "internalType": "address",
          "name": "_candidateAddress",
          "type": "address"
        }
      ],
      "name": "setVote",
      "outputs": [],
      "stateMutability": "nonpayable",
      "type": "function"
    },
    {
      "inputs": [
        {
          "internalType": "uint256",
          "name": "_electionId",
          "type": "uint256"
        },
        {
          "internalType": "bool",
          "name": "_isActive",
          "type": "bool"
        }
      ],
      "name": "setVotingState",
      "outputs": [],
      "stateMutability": "nonpayable",
      "type": "function"
    },
    {
      "inputs": [
        {
          "internalType": "uint256",
          "name": "_electionId",
          "type": "uint256"
        }
      ],
      "name": "votingStatus",
      "outputs": [
        {
          "internalType": "bool",
          "name": "",
          "type": "bool"
        }
      ],
      "stateMutability": "view",
      "type": "function",
      "constant": true
    },
    {
      "inputs": [
        {
          "internalType": "uint256",
          "name": "_electionId",
          "type": "uint256"
        }
      ],
      "name": "getAllCandidates",
      "outputs": [
        {
          "components": [
            {
              "internalType": "string",
              "name": "name",
              "type": "string"
            },
            {
              "internalType": "uint256",
              "name": "age",
              "type": "uint256"
            },
            {
              "internalType": "bool",
              "name": "registered",
              "type": "bool"
            },
            {
              "internalType": "address",
              "name": "candidateAddress",
              "type": "address"
            },
            {
              "internalType": "uint256",
              "name": "votes",
              "type": "uint256"
            }
          ],
          "internalType": "struct Voting.Candidate[]",
          "name": "",
          "type": "tuple[]"
        }
      ],
      "stateMutability": "view",
      "type": "function",
      "constant": true
    },
    {
      "inputs": [
        {
          "internalType": "uint256",
          "name": "_electionId",
          "type": "uint256"
        }
      ],
      "name": "getWinner",
      "outputs": [
        {
          "components": [
            {
              "internalType": "string",
              "name": "name",
              "type": "string"
            },
            {
              "internalType": "uint256",
              "name": "age",
              "type": "uint256"
            },
            {
              "internalType": "bool",
              "name": "registered",
              "type": "bool"
            },
            {
              "internalType": "address",
              "name": "candidateAddress",
              "type": "address"
            },
            {
              "internalType": "uint256",
              "name": "votes",
              "type": "uint256"
            }
          ],
          "internalType": "struct Voting.Candidate",
          "name": "",
          "type": "tuple"
        }
      ],
      "stateMutability": "view",
      "type": "function",
      "constant": true
    }
  ],
  "bytecode": "0x6080604052348015600e575f5ffd5b50335f5f6101000a81548173ffffffffffffffffffffffffffffffffffffffff021916908373ffffffffffffffffffffffffffffffffffffffff160217905550612dbc8061005b5f395ff3fe608060405234801561000f575f5ffd5b50600436106100cd575f3560e01c8063563d65a51161008a5780639f3a7f52116100645780639f3a7f5214610211578063bb812bc21461022f578063f851a4401461024b578063f9ded64614610269576100cd565b8063563d65a5146101a35780635e6fef01146101bf578063997d2830146101f3576100cd565b80630e13dd74146100d157806315cf4a5f14610101578063213785a01461011d5780632b2b678c1461013b5780633e511032146101575780634129b2c914610173575b5f5ffd5b6100eb60048036038101906100e69190611af2565b610299565b6040516100f89190611b37565b60405180910390f35b61011b60048036038101906101169190611bb1565b610322565b005b61012561049a565b6040516101329190611c0b565b60405180910390f35b61015560048036038101906101509190611c7e565b6104a3565b005b610171600480360381019061016c9190611c7e565b6107a8565b005b61018d60048036038101906101889190611af2565b610ce4565b60405161019a9190611dcc565b60405180910390f35b6101bd60048036038101906101b89190611e16565b610fb3565b005b6101d960048036038101906101d49190611af2565b611146565b6040516101ea959493929190611eab565b60405180910390f35b6101fb611235565b6040516102089190611c0b565b60405180910390f35b61021961123b565b6040516102269190612031565b60405180910390f35b61024960048036038101906102449190612051565b611410565b005b610253611828565b60405161026091906120d5565b60405180910390f35b610283600480360381019061027e9190611af2565b61184c565b604051610290919061221c565b60405180910390f35b5f60015f8381526020019081526020015f206007015f9054906101000a900460ff166102fa576040517f08c379a00000000000000000000000000000000000000000000000000000000081526004016102f190612286565b60405180910390fd5b60015f8381526020019081526020015f206001015f9054906101000a900460ff169050919050565b5f5f9054906101000a900473ffffffffffffffffffffffffffffffffffffffff1673ffffffffffffffffffffffffffffffffffffffff163373ffffffffffffffffffffffffffffffffffffffff16146103b0576040517f08c379a00000000000000000000000000000000000000000000000000000000081526004016103a790612314565b60405180910390fd5b60025f8154809291906103c29061235f565b9190505550818160015f60025481526020019081526020015f205f0191826103eb9291906125da565b505f60015f60025481526020019081526020015f206001015f6101000a81548160ff0219169083151502179055505f60015f60025481526020019081526020015f20600201819055506001805f60025481526020019081526020015f206007015f6101000a81548160ff0219169083151502179055507f68f068b2f0d02fca99bc8285b62fce8668fe16b7c6a810351ea25bff358c0dd860405161048e906126f1565b60405180910390a15050565b5f600254905090565b5f5f9054906101000a900473ffffffffffffffffffffffffffffffffffffffff1673ffffffffffffffffffffffffffffffffffffffff163373ffffffffffffffffffffffffffffffffffffffff1614610531576040517f08c379a000000000000000000000000000000000000000000000000000000000815260040161052890612314565b60405180910390fd5b60015f8381526020019081526020015f206007015f9054906101000a900460ff16610591576040517f08c379a000000000000000000000000000000000000000000000000000000000815260040161058890612286565b60405180910390fd5b5f5f9054906101000a900473ffffffffffffffffffffffffffffffffffffffff1673ffffffffffffffffffffffffffffffffffffffff168173ffffffffffffffffffffffffffffffffffffffff160361061f576040517f08c379a000000000000000000000000000000000000000000000000000000000815260040161061690612759565b60405180910390fd5b60015f8381526020019081526020015f206006015f8273ffffffffffffffffffffffffffffffffffffffff1673ffffffffffffffffffffffffffffffffffffffff1681526020019081526020015f205f015f9054906101000a900460ff16156106bd576040517f08c379a00000000000000000000000000000000000000000000000000000000081526004016106b4906127c1565b60405180910390fd5b5f60015f8481526020019081526020015f2090505f60405180604001604052806001151581526020015f1515815250905080826006015f8573ffffffffffffffffffffffffffffffffffffffff1673ffffffffffffffffffffffffffffffffffffffff1681526020019081526020015f205f820151815f015f6101000a81548160ff0219169083151502179055506020820151815f0160016101000a81548160ff0219169083151502179055509050507f68f068b2f0d02fca99bc8285b62fce8668fe16b7c6a810351ea25bff358c0dd860405161079a90612829565b60405180910390a150505050565b60015f8381526020019081526020015f206007015f9054906101000a900460ff16610808576040517f08c379a00000000000000000000000000000000000000000000000000000000081526004016107ff90612286565b60405180910390fd5b60015f8381526020019081526020015f206001015f9054906101000a900460ff16610868576040517f08c379a000000000000000000000000000000000000000000000000000000000815260040161085f90612891565b60405180910390fd5b5f5f9054906101000a900473ffffffffffffffffffffffffffffffffffffffff1673ffffffffffffffffffffffffffffffffffffffff163373ffffffffffffffffffffffffffffffffffffffff16036108f6576040517f08c379a00000000000000000000000000000000000000000000000000000000081526004016108ed90612759565b60405180910390fd5b60015f8381526020019081526020015f206006015f3373ffffffffffffffffffffffffffffffffffffffff1673ffffffffffffffffffffffffffffffffffffffff1681526020019081526020015f205f015f9054906101000a900460ff16610993576040517f08c379a000000000000000000000000000000000000000000000000000000000815260040161098a906128f9565b60405180910390fd5b60015f8381526020019081526020015f206006015f3373ffffffffffffffffffffffffffffffffffffffff1673ffffffffffffffffffffffffffffffffffffffff1681526020019081526020015f205f0160019054906101000a900460ff1615610a32576040517f08c379a0000000000000000000000000000000000000000000000000000000008152600401610a2990612961565b60405180910390fd5b60015f8381526020019081526020015f2060050160015f8481526020019081526020015f206004015f8373ffffffffffffffffffffffffffffffffffffffff1673ffffffffffffffffffffffffffffffffffffffff1681526020019081526020015f205481548110610aa757610aa661297f565b5b905f5260205f2090600402016002015f9054906101000a900460ff16610b02576040517f08c379a0000000000000000000000000000000000000000000000000000000008152600401610af9906129f6565b60405180910390fd5b5f60015f8481526020019081526020015f20905080600501816004015f8473ffffffffffffffffffffffffffffffffffffffff1673ffffffffffffffffffffffffffffffffffffffff1681526020019081526020015f205481548110610b6b57610b6a61297f565b5b905f5260205f2090600402016003015f815480929190610b8a9061235f565b91905055506001816006015f3373ffffffffffffffffffffffffffffffffffffffff1673ffffffffffffffffffffffffffffffffffffffff1681526020019081526020015f205f0160016101000a81548160ff0219169083151502179055505f81600501826004015f8573ffffffffffffffffffffffffffffffffffffffff1673ffffffffffffffffffffffffffffffffffffffff1681526020019081526020015f205481548110610c3f57610c3e61297f565b5b905f5260205f2090600402016003015490508082600201541015610ca95780826002018190555082826003015f6101000a81548173ffffffffffffffffffffffffffffffffffffffff021916908373ffffffffffffffffffffffffffffffffffffffff1602179055505b7f68f068b2f0d02fca99bc8285b62fce8668fe16b7c6a810351ea25bff358c0dd8604051610cd690612a5e565b60405180910390a150505050565b610cec611a2f565b5f5f9054906101000a900473ffffffffffffffffffffffffffffffffffffffff1673ffffffffffffffffffffffffffffffffffffffff163373ffffffffffffffffffffffffffffffffffffffff1614610d7a576040517f08c379a0000000000000000000000000000000000000000000000000000000008152600401610d7190612314565b60405180910390fd5b60015f8381526020019081526020015f206007015f9054906101000a900460ff16610dda576040517f08c379a0000000000000000000000000000000000000000000000000000000008152600401610dd190612286565b60405180910390fd5b60015f8381526020019081526020015f2060050160015f8481526020019081526020015f206004015f60015f8681526020019081526020015f206003015f9054906101000a900473ffffffffffffffffffffffffffffffffffffffff1673ffffffffffffffffffffffffffffffffffffffff1673ffffffffffffffffffffffffffffffffffffffff1681526020019081526020015f205481548110610e8257610e8161297f565b5b905f5260205f2090600402016040518060a00160405290815f82018054610ea89061240a565b80601f0160208091040260200160405190810160405280929190818152602001828054610ed49061240a565b8015610f1f5780601f10610ef657610100808354040283529160200191610f1f565b820191905f5260205f20905b815481529060010190602001808311610f0257829003601f168201915b5050505050815260200160018201548152602001600282015f9054906101000a900460ff161515151581526020016002820160019054906101000a900473ffffffffffffffffffffffffffffffffffffffff1673ffffffffffffffffffffffffffffffffffffffff1673ffffffffffffffffffffffffffffffffffffffff1681526020016003820154815250509050919050565b5f5f9054906101000a900473ffffffffffffffffffffffffffffffffffffffff1673ffffffffffffffffffffffffffffffffffffffff163373ffffffffffffffffffffffffffffffffffffffff1614611041576040517f08c379a000000000000000000000000000000000000000000000000000000000815260040161103890612314565b60405180910390fd5b60015f8381526020019081526020015f206007015f9054906101000a900460ff166110a1576040517f08c379a000000000000000000000000000000000000000000000000000000000815260040161109890612286565b60405180910390fd5b8060015f8481526020019081526020015f206001015f6101000a81548160ff021916908315150217905550801561110c577f68f068b2f0d02fca99bc8285b62fce8668fe16b7c6a810351ea25bff358c0dd86040516110ff90612ac6565b60405180910390a1611142565b7f68f068b2f0d02fca99bc8285b62fce8668fe16b7c6a810351ea25bff358c0dd860405161113990612b2e565b60405180910390a15b5050565b6001602052805f5260405f205f91509050805f0180546111659061240a565b80601f01602080910402602001604051908101604052809291908181526020018280546111919061240a565b80156111dc5780601f106111b3576101008083540402835291602001916111dc565b820191905f5260205f20905b8154815290600101906020018083116111bf57829003601f168201915b505050505090806001015f9054906101000a900460ff1690806002015490806003015f9054906101000a900473ffffffffffffffffffffffffffffffffffffffff1690806007015f9054906101000a900460ff16905085565b60025481565b60605f60025467ffffffffffffffff81111561125a576112596123b0565b5b60405190808252806020026020018201604052801561129357816020015b611280611a72565b8152602001906001900390816112785790505b5090505f600190505b6002548111611408575f60015f8381526020019081526020015f2090506040518060a00160405280825f0180546112d29061240a565b80601f01602080910402602001604051908101604052809291908181526020018280546112fe9061240a565b80156113495780601f1061132057610100808354040283529160200191611349565b820191905f5260205f20905b81548152906001019060200180831161132c57829003601f168201915b50505050508152602001826001015f9054906101000a900460ff161515815260200182600201548152602001826003015f9054906101000a900473ffffffffffffffffffffffffffffffffffffffff1673ffffffffffffffffffffffffffffffffffffffff168152602001826007015f9054906101000a900460ff161515815250836001846113d89190612b4c565b815181106113e9576113e861297f565b5b60200260200101819052505080806114009061235f565b91505061129c565b508091505090565b5f5f9054906101000a900473ffffffffffffffffffffffffffffffffffffffff1673ffffffffffffffffffffffffffffffffffffffff163373ffffffffffffffffffffffffffffffffffffffff161461149e576040517f08c379a000000000000000000000000000000000000000000000000000000000815260040161149590612314565b60405180910390fd5b60015f8681526020019081526020015f206007015f9054906101000a900460ff166114fe576040517f08c379a00000000000000000000000000000000000000000000000000000000081526004016114f590612286565b60405180910390fd5b5f5f9054906101000a900473ffffffffffffffffffffffffffffffffffffffff1673ffffffffffffffffffffffffffffffffffffffff168173ffffffffffffffffffffffffffffffffffffffff160361158c576040517f08c379a000000000000000000000000000000000000000000000000000000000815260040161158390612bc9565b60405180910390fd5b5f60015f8781526020019081526020015f206004015f8373ffffffffffffffffffffffffffffffffffffffff1673ffffffffffffffffffffffffffffffffffffffff1681526020019081526020015f20541461161d576040517f08c379a000000000000000000000000000000000000000000000000000000000815260040161161490612c31565b60405180910390fd5b5f60015f8781526020019081526020015f2090505f6040518060a0016040528087878080601f0160208091040260200160405190810160405280939291908181526020018383808284375f81840152601f19601f8201169050808301925050505050505081526020018581526020016001151581526020018473ffffffffffffffffffffffffffffffffffffffff1681526020015f81525090505f8260050180549050036116e4578160050160018160018154018082558091505003905f5260205f209050505b8160050180549050826004015f8573ffffffffffffffffffffffffffffffffffffffff1673ffffffffffffffffffffffffffffffffffffffff1681526020019081526020015f20819055508160050181908060018154018082558091505060019003905f5260205f2090600402015f909190919091505f820151815f01908161176d9190612c4f565b50602082015181600101556040820151816002015f6101000a81548160ff02191690831515021790555060608201518160020160016101000a81548173ffffffffffffffffffffffffffffffffffffffff021916908373ffffffffffffffffffffffffffffffffffffffff1602179055506080820151816003015550507f68f068b2f0d02fca99bc8285b62fce8668fe16b7c6a810351ea25bff358c0dd860405161181790612d68565b60405180910390a150505050505050565b5f5f9054906101000a900473ffffffffffffffffffffffffffffffffffffffff1681565b606060015f8381526020019081526020015f206007015f9054906101000a900460ff166118ae576040517f08c379a00000000000000000000000000000000000000000000000000000000081526004016118a590612286565b60405180910390fd5b60015f8381526020019081526020015f20600501805480602002602001604051908101604052809291908181526020015f905b82821015611a24578382905f5260205f2090600402016040518060a00160405290815f820180546119119061240a565b80601f016020809104026020016040519081016040528092919081815260200182805461193d9061240a565b80156119885780601f1061195f57610100808354040283529160200191611988565b820191905f5260205f20905b81548152906001019060200180831161196b57829003601f168201915b5050505050815260200160018201548152602001600282015f9054906101000a900460ff161515151581526020016002820160019054906101000a900473ffffffffffffffffffffffffffffffffffffffff1673ffffffffffffffffffffffffffffffffffffffff1673ffffffffffffffffffffffffffffffffffffffff168152602001600382015481525050815260200190600101906118e1565b505050509050919050565b6040518060a00160405280606081526020015f81526020015f151581526020015f73ffffffffffffffffffffffffffffffffffffffff1681526020015f81525090565b6040518060a00160405280606081526020015f151581526020015f81526020015f73ffffffffffffffffffffffffffffffffffffffff1681526020015f151581525090565b5f5ffd5b5f5ffd5b5f819050919050565b611ad181611abf565b8114611adb575f5ffd5b50565b5f81359050611aec81611ac8565b92915050565b5f60208284031215611b0757611b06611ab7565b5b5f611b1484828501611ade565b91505092915050565b5f8115159050919050565b611b3181611b1d565b82525050565b5f602082019050611b4a5f830184611b28565b92915050565b5f5ffd5b5f5ffd5b5f5ffd5b5f5f83601f840112611b7157611b70611b50565b5b8235905067ffffffffffffffff811115611b8e57611b8d611b54565b5b602083019150836001820283011115611baa57611ba9611b58565b5b9250929050565b5f5f60208385031215611bc757611bc6611ab7565b5b5f83013567ffffffffffffffff811115611be457611be3611abb565b5b611bf085828601611b5c565b92509250509250929050565b611c0581611abf565b82525050565b5f602082019050611c1e5f830184611bfc565b92915050565b5f73ffffffffffffffffffffffffffffffffffffffff82169050919050565b5f611c4d82611c24565b9050919050565b611c5d81611c43565b8114611c67575f5ffd5b50565b5f81359050611c7881611c54565b92915050565b5f5f60408385031215611c9457611c93611ab7565b5b5f611ca185828601611ade565b9250506020611cb285828601611c6a565b9150509250929050565b5f81519050919050565b5f82825260208201905092915050565b8281835e5f83830152505050565b5f601f19601f8301169050919050565b5f611cfe82611cbc565b611d088185611cc6565b9350611d18818560208601611cd6565b611d2181611ce4565b840191505092915050565b611d3581611abf565b82525050565b611d4481611b1d565b82525050565b611d5381611c43565b82525050565b5f60a083015f8301518482035f860152611d738282611cf4565b9150506020830151611d886020860182611d2c565b506040830151611d9b6040860182611d3b565b506060830151611dae6060860182611d4a565b506080830151611dc16080860182611d2c565b508091505092915050565b5f6020820190508181035f830152611de48184611d59565b905092915050565b611df581611b1d565b8114611dff575f5ffd5b50565b5f81359050611e1081611dec565b92915050565b5f5f60408385031215611e2c57611e2b611ab7565b5b5f611e3985828601611ade565b9250506020611e4a85828601611e02565b9150509250929050565b5f82825260208201905092915050565b5f611e6e82611cbc565b611e788185611e54565b9350611e88818560208601611cd6565b611e9181611ce4565b840191505092915050565b611ea581611c43565b82525050565b5f60a0820190508181035f830152611ec38188611e64565b9050611ed26020830187611b28565b611edf6040830186611bfc565b611eec6060830185611e9c565b611ef96080830184611b28565b9695505050505050565b5f81519050919050565b5f82825260208201905092915050565b5f819050602082019050919050565b5f60a083015f8301518482035f860152611f468282611cf4565b9150506020830151611f5b6020860182611d3b565b506040830151611f6e6040860182611d2c565b506060830151611f816060860182611d4a565b506080830151611f946080860182611d3b565b508091505092915050565b5f611faa8383611f2c565b905092915050565b5f602082019050919050565b5f611fc882611f03565b611fd28185611f0d565b935083602082028501611fe485611f1d565b805f5b8581101561201f57848403895281516120008582611f9f565b945061200b83611fb2565b925060208a01995050600181019050611fe7565b50829750879550505050505092915050565b5f6020820190508181035f8301526120498184611fbe565b905092915050565b5f5f5f5f5f6080868803121561206a57612069611ab7565b5b5f61207788828901611ade565b955050602086013567ffffffffffffffff81111561209857612097611abb565b5b6120a488828901611b5c565b945094505060406120b788828901611ade565b92505060606120c888828901611c6a565b9150509295509295909350565b5f6020820190506120e85f830184611e9c565b92915050565b5f81519050919050565b5f82825260208201905092915050565b5f819050602082019050919050565b5f60a083015f8301518482035f8601526121318282611cf4565b91505060208301516121466020860182611d2c565b5060408301516121596040860182611d3b565b50606083015161216c6060860182611d4a565b50608083015161217f6080860182611d2c565b508091505092915050565b5f6121958383612117565b905092915050565b5f602082019050919050565b5f6121b3826120ee565b6121bd81856120f8565b9350836020820285016121cf85612108565b805f5b8581101561220a57848403895281516121eb858261218a565b94506121f68361219d565b925060208a019950506001810190506121d2565b50829750879550505050505092915050565b5f6020820190508181035f83015261223481846121a9565b905092915050565b7f456c656374696f6e20646f6573206e6f742065786973740000000000000000005f82015250565b5f612270601783611e54565b915061227b8261223c565b602082019050919050565b5f6020820190508181035f83015261229d81612264565b9050919050565b7f6f6e6c792061646d696e2063616e20706572666f726d207468697320616374695f8201527f6f6e000000000000000000000000000000000000000000000000000000000000602082015250565b5f6122fe602283611e54565b9150612309826122a4565b604082019050919050565b5f6020820190508181035f83015261232b816122f2565b9050919050565b7f4e487b71000000000000000000000000000000000000000000000000000000005f52601160045260245ffd5b5f61236982611abf565b91507fffffffffffffffffffffffffffffffffffffffffffffffffffffffffffffffff820361239b5761239a612332565b5b600182019050919050565b5f82905092915050565b7f4e487b71000000000000000000000000000000000000000000000000000000005f52604160045260245ffd5b7f4e487b71000000000000000000000000000000000000000000000000000000005f52602260045260245ffd5b5f600282049050600182168061242157607f821691505b602082108103612434576124336123dd565b5b50919050565b5f819050815f5260205f209050919050565b5f6020601f8301049050919050565b5f82821b905092915050565b5f600883026124967fffffffffffffffffffffffffffffffffffffffffffffffffffffffffffffffff8261245b565b6124a0868361245b565b95508019841693508086168417925050509392505050565b5f819050919050565b5f6124db6124d66124d184611abf565b6124b8565b611abf565b9050919050565b5f819050919050565b6124f4836124c1565b612508612500826124e2565b848454612467565b825550505050565b5f5f905090565b61251f612510565b61252a8184846124eb565b505050565b5b8181101561254d576125425f82612517565b600181019050612530565b5050565b601f821115612592576125638161243a565b61256c8461244c565b8101602085101561257b578190505b61258f6125878561244c565b83018261252f565b50505b505050565b5f82821c905092915050565b5f6125b25f1984600802612597565b1980831691505092915050565b5f6125ca83836125a3565b9150826002028217905092915050565b6125e483836123a6565b67ffffffffffffffff8111156125fd576125fc6123b0565b5b612607825461240a565b612612828285612551565b5f601f83116001811461263f575f841561262d578287013590505b61263785826125bf565b86555061269e565b601f19841661264d8661243a565b5f5b828110156126745784890135825560018201915060208501945060208101905061264f565b86831015612691578489013561268d601f8916826125a3565b8355505b6001600288020188555050505b50505050505050565b7f456c656374696f6e2063726561746564000000000000000000000000000000005f82015250565b5f6126db601083611e54565b91506126e6826126a7565b602082019050919050565b5f6020820190508181035f830152612708816126cf565b9050919050565b7f61646d696e2063616e6e6f7420766f74650000000000000000000000000000005f82015250565b5f612743601183611e54565b915061274e8261270f565b602082019050919050565b5f6020820190508181035f83015261277081612737565b9050919050565b7f566f74657220616c7265616479207265676973746572656400000000000000005f82015250565b5f6127ab601883611e54565b91506127b682612777565b602082019050919050565b5f6020820190508181035f8301526127d88161279f565b9050919050565b7f566f7465722072656769737465726564000000000000000000000000000000005f82015250565b5f612813601083611e54565b915061281e826127df565b602082019050919050565b5f6020820190508181035f83015261284081612807565b9050919050565b7f566f74696e67206973206e6f7420696e2070726f6772657373000000000000005f82015250565b5f61287b601983611e54565b915061288682612847565b602082019050919050565b5f6020820190508181035f8301526128a88161286f565b9050919050565b7f566f746572206e6f7420726567697374657265640000000000000000000000005f82015250565b5f6128e3601483611e54565b91506128ee826128af565b602082019050919050565b5f6020820190508181035f830152612910816128d7565b9050919050565b7f416c726561647920766f746564000000000000000000000000000000000000005f82015250565b5f61294b600d83611e54565b915061295682612917565b602082019050919050565b5f6020820190508181035f8301526129788161293f565b9050919050565b7f4e487b71000000000000000000000000000000000000000000000000000000005f52603260045260245ffd5b7f43616e646964617465206e6f74207265676973746572656400000000000000005f82015250565b5f6129e0601883611e54565b91506129eb826129ac565b602082019050919050565b5f6020820190508181035f830152612a0d816129d4565b9050919050565b7f566f7465640000000000000000000000000000000000000000000000000000005f82015250565b5f612a48600583611e54565b9150612a5382612a14565b602082019050919050565b5f6020820190508181035f830152612a7581612a3c565b9050919050565b7f566f74696e6720737461727465640000000000000000000000000000000000005f82015250565b5f612ab0600e83611e54565b9150612abb82612a7c565b602082019050919050565b5f6020820190508181035f830152612add81612aa4565b9050919050565b7f566f74696e6720656e64656400000000000000000000000000000000000000005f82015250565b5f612b18600c83611e54565b9150612b2382612ae4565b602082019050919050565b5f6020820190508181035f830152612b4581612b0c565b9050919050565b5f612b5682611abf565b9150612b6183611abf565b9250828203905081811115612b7957612b78612332565b5b92915050565b7f61646d696e2063616e6e6f74206265207468652063616e6469646174650000005f82015250565b5f612bb3601d83611e54565b9150612bbe82612b7f565b602082019050919050565b5f6020820190508181035f830152612be081612ba7565b9050919050565b7f43616e64696461746520616c72656164792072656769737465726564000000005f82015250565b5f612c1b601c83611e54565b9150612c2682612be7565b602082019050919050565b5f6020820190508181035f830152612c4881612c0f565b9050919050565b612c5882611cbc565b67ffffffffffffffff811115612c7157612c706123b0565b5b612c7b825461240a565b612c86828285612551565b5f60209050601f831160018114612cb7575f8415612ca5578287015190505b612caf85826125bf565b865550612d16565b601f198416612cc58661243a565b5f5b82811015612cec57848901518255600182019150602085019450602081019050612cc7565b86831015612d095784890151612d05601f8916826125a3565b8355505b6001600288020188555050505b505050505050565b7f43616e64696461746520726567697374657265640000000000000000000000005f82015250565b5f612d52601483611e54565b9150612d5d82612d1e565b602082019050919050565b5f6020820190508181035f830152612d7f81612d46565b905091905056fea26469706673582212208bdc6321a1f4247bd5ee1fb242d5ed37d1968251cbaec1f181336e6bf760c7e564736f6c634300081c0033",
  "immutableReferences": {},
  "source": "// SPDX-License-Identifier: MIT\r\npragma solidity ^0.8.13;\r\n\r\ncontract Voting {\r\n    address public admin;\r\n\r\n    struct Candidate {\r\n        string name;\r\n        uint age;\r\n        bool registered;\r\n        address candidateAddress;\r\n        uint votes;\r\n    }\r\n\r\n    struct Voter {\r\n        bool registered;\r\n        bool voted;\r\n    }\r\n\r\n    struct Election {\r\n        string eventName;\r\n        bool voteInProgress;\r\n        uint voteCount;\r\n        address winnerAddress;\r\n        mapping(address => uint) isCandidate;\r\n        Candidate[] candidateList;\r\n        mapping(address => Voter) voterList;\r\n        bool exists;\r\n    }\r\n\r\n    event success(string msg);\r\n    mapping(uint => Election) public elections;\r\n    uint public electionCount;\r\n\r\n    constructor() {\r\n        admin = msg.sender;\r\n    }\r\n\r\n    modifier onlyAdmin() {\r\n        require(msg.sender == admin, \"only admin can perform this action\");\r\n        _;\r\n    }\r\n\r\n    function createElection(string calldata _eventName) external onlyAdmin {\r\n        electionCount++;\r\n        elections[electionCount].eventName = _eventName;\r\n        elections[electionCount].voteInProgress = false;\r\n        elections[electionCount].voteCount = 0;\r\n        elections[electionCount].exists = true;\r\n\r\n        emit success(\"Election created\");\r\n    }\r\n\r\n    struct ElectionSummary {\r\n        string eventName;\r\n        bool voteInProgress;\r\n        uint voteCount;\r\n        address winnerAddress;\r\n        bool exists;\r\n    }\r\n\r\n    function getElections() external view returns (ElectionSummary[] memory) {\r\n        ElectionSummary[] memory _elections = new ElectionSummary[](electionCount);\r\n        for (uint i = 1; i <= electionCount; i++) {\r\n            Election storage election = elections[i];\r\n            _elections[i - 1] = ElectionSummary({\r\n                eventName: election.eventName,\r\n                voteInProgress: election.voteInProgress,\r\n                voteCount: election.voteCount,\r\n                winnerAddress: election.winnerAddress,\r\n                exists: election.exists\r\n            });\r\n        }\r\n        return _elections;\r\n    }\r\n\r\n    function getElectionCount() external view returns (uint) {\r\n        return electionCount;\r\n    }\r\n\r\n    function registerCandidates(uint _electionId, string calldata _name, uint _age, address _candidateAddress) external onlyAdmin {\r\n        require(elections[_electionId].exists, \"Election does not exist\");\r\n        require(_candidateAddress != admin, \"admin cannot be the candidate\");\r\n        require(elections[_electionId].isCandidate[_candidateAddress] == 0, \"Candidate already registered\");\r\n\r\n        Election storage election = elections[_electionId];\r\n        Candidate memory candidate = Candidate({\r\n            name: _name,\r\n            age: _age,\r\n            registered: true,\r\n            votes: 0,\r\n            candidateAddress: _candidateAddress\r\n        });\r\n\r\n        if(election.candidateList.length == 0) { // leaving index 0 to check if candidate is registered\r\n            election.candidateList.push();\r\n        }\r\n        \r\n        election.isCandidate[_candidateAddress] = election.candidateList.length;\r\n        election.candidateList.push(candidate);\r\n\r\n        emit success(\"Candidate registered\");\r\n    }\r\n\r\n    function verifyVoter(uint _electionId, address _voterAddress) external onlyAdmin {\r\n        require(elections[_electionId].exists, \"Election does not exist\");\r\n        require(_voterAddress != admin, \"admin cannot vote\");\r\n        require(!elections[_electionId].voterList[_voterAddress].registered, \"Voter already registered\");\r\n\r\n        Election storage election = elections[_electionId];\r\n        Voter memory voter = Voter({\r\n            registered: true,\r\n            voted: false\r\n        });\r\n\r\n        election.voterList[_voterAddress] = voter;\r\n\r\n        emit success(\"Voter registered\");\r\n    }\r\n\r\n    function setVote(uint _electionId, address _candidateAddress) external {\r\n        require(elections[_electionId].exists, \"Election does not exist\");\r\n        require(elections[_electionId].voteInProgress, \"Voting is not in progress\");\r\n        require(msg.sender != admin, \"admin cannot vote\");\r\n        require(elections[_electionId].voterList[msg.sender].registered, \"Voter not registered\");\r\n        require(!elections[_electionId].voterList[msg.sender].voted, \"Already voted\");\r\n        require(elections[_electionId].candidateList[elections[_electionId].isCandidate[_candidateAddress]].registered, \"Candidate not registered\");\r\n\r\n        Election storage election = elections[_electionId];\r\n        election.candidateList[election.isCandidate[_candidateAddress]].votes++;\r\n        election.voterList[msg.sender].voted = true;\r\n        uint votes = election.candidateList[election.isCandidate[_candidateAddress]].votes;\r\n\r\n        if(election.voteCount < votes) {\r\n            election.voteCount = votes;\r\n            election.winnerAddress = _candidateAddress;\r\n        }\r\n\r\n        emit success(\"Voted\");\r\n    }\r\n\r\n    function setVotingState(uint _electionId, bool _isActive) external onlyAdmin {\r\n        require(elections[_electionId].exists, \"Election does not exist\");\r\n\r\n        elections[_electionId].voteInProgress = _isActive;\r\n\r\n        if (_isActive) {\r\n            emit success(\"Voting started\");\r\n        } else {\r\n            emit success(\"Voting ended\");\r\n        }\r\n    }\r\n\r\n    function votingStatus(uint _electionId) external view returns (bool) {\r\n        require(elections[_electionId].exists, \"Election does not exist\");\r\n        return elections[_electionId].voteInProgress;\r\n    }\r\n\r\n    function getAllCandidates(uint _electionId) external view returns (Candidate[] memory) {\r\n        require(elections[_electionId].exists, \"Election does not exist\");\r\n        return elections[_electionId].candidateList;\r\n    }\r\n\r\n    function getWinner(uint _electionId) external view onlyAdmin returns (Candidate memory) {\r\n        require(elections[_electionId].exists, \"Election does not exist\");\r\n        return elections[_electionId].candidateList[elections[_electionId].isCandidate[elections[_electionId].winnerAddress]];\r\n    }\r\n}\r\n",
  "sourcePath": "E:\\SYS\\Decentralized Voting\\contract\\contracts\\Voting.sol",
  "compiler": {
    "name": "solc",
    "version": "0.8.28+commit.7893614a.Emscripten.clang"
  },
  "schemaVersion": "3.4.16",
  "updatedAt": "2024-11-22T03:58:12.524Z",
  "networkType": "ethereum",
  "devdoc": {
    "kind": "dev",
    "methods": {},
    "version": 1
  },
  "userdoc": {
    "kind": "user",
    "methods": {},
    "version": 1
  }
}